{
  "contractName": "SmartContribute",
  "abi": [
    {
      "anonymous": false,
      "inputs": [
        {
          "indexed": true,
          "internalType": "address",
          "name": "from",
          "type": "address"
        },
        {
          "indexed": false,
          "internalType": "uint256",
          "name": "updatedFirst",
          "type": "uint256"
        },
        {
          "indexed": false,
          "internalType": "uint256",
          "name": "updatedSecond",
          "type": "uint256"
        }
      ],
      "name": "UpdateEvent",
      "type": "event"
    },
    {
      "inputs": [
        {
          "internalType": "string",
          "name": "gitId",
          "type": "string"
        }
      ],
      "name": "fundIssuer",
      "outputs": [],
      "stateMutability": "payable",
      "type": "function",
      "payable": true
    },
    {
      "inputs": [
        {
          "internalType": "string",
          "name": "issueId",
          "type": "string"
        },
        {
          "internalType": "string",
          "name": "gitId",
          "type": "string"
        },
        {
          "internalType": "uint256",
          "name": "bounty",
          "type": "uint256"
        }
      ],
      "name": "registerIssue",
      "outputs": [],
      "stateMutability": "nonpayable",
      "type": "function"
    },
    {
      "inputs": [
        {
          "internalType": "string",
          "name": "issueId",
          "type": "string"
        },
        {
          "internalType": "string",
          "name": "gitId",
          "type": "string"
        }
      ],
      "name": "cancelBounty",
      "outputs": [],
      "stateMutability": "nonpayable",
      "type": "function"
    },
    {
      "inputs": [
        {
          "internalType": "string",
          "name": "gitId",
          "type": "string"
        }
      ],
      "name": "registerHunter",
      "outputs": [],
      "stateMutability": "nonpayable",
      "type": "function"
    },
    {
      "inputs": [
        {
          "internalType": "string",
          "name": "issueId",
          "type": "string"
        },
        {
          "internalType": "string",
          "name": "hunterGitId",
          "type": "string"
        }
      ],
      "name": "claimBounty",
      "outputs": [],
      "stateMutability": "nonpayable",
      "type": "function"
    },
    {
      "inputs": [
        {
          "internalType": "string",
          "name": "gitId",
          "type": "string"
        }
      ],
      "name": "claimFund",
      "outputs": [],
      "stateMutability": "nonpayable",
      "type": "function"
    },
    {
      "inputs": [
        {
          "internalType": "string",
          "name": "issueId",
          "type": "string"
        }
      ],
      "name": "getIssueBounties",
      "outputs": [
        {
          "internalType": "uint256",
          "name": "",
          "type": "uint256"
        }
      ],
      "stateMutability": "view",
      "type": "function",
      "constant": true
    },
    {
      "inputs": [
        {
          "internalType": "string",
          "name": "gitId",
          "type": "string"
        }
      ],
      "name": "getIssuerFunds",
      "outputs": [
        {
          "internalType": "uint256",
          "name": "",
          "type": "uint256"
        }
      ],
      "stateMutability": "view",
      "type": "function",
      "constant": true
    },
    {
      "inputs": [
        {
          "internalType": "string",
          "name": "gitId",
          "type": "string"
        }
      ],
      "name": "getIssuerWallets",
      "outputs": [
        {
          "internalType": "address",
          "name": "",
          "type": "address"
        }
      ],
      "stateMutability": "view",
      "type": "function",
      "constant": true
    },
    {
      "inputs": [
        {
          "internalType": "string",
          "name": "gitId",
          "type": "string"
        }
      ],
      "name": "getHunterWallets",
      "outputs": [
        {
          "internalType": "address",
          "name": "",
          "type": "address"
        }
      ],
      "stateMutability": "view",
      "type": "function",
      "constant": true
    }
  ],
  "bytecode": "0x608060405234801561001057600080fd5b50610b64806100206000396000f3fe6080604052600436106100905760003560e01c8063aa4ba12e11610059578063aa4ba12e14610162578063c586018d14610182578063e8097c80146101a2578063f17055b7146101c2578063feee7707146101e257600080fd5b80628d359f146100955780632b6f0495146100d25780638686383e146100f457806389f7deed146101225780639222dd2614610142575b600080fd5b3480156100a157600080fd5b506100b56100b03660046109af565b6101f5565b6040516001600160a01b0390911681526020015b60405180910390f35b3480156100de57600080fd5b506100f26100ed3660046109af565b610225565b005b34801561010057600080fd5b5061011461010f3660046109af565b61026e565b6040519081526020016100c9565b34801561012e57600080fd5b506100f261013d3660046109af565b610296565b34801561014e57600080fd5b506100f261015d3660046109ec565b6103de565b34801561016e57600080fd5b506100b561017d3660046109af565b6104fb565b34801561018e57600080fd5b506100f261019d3660046109ec565b61050d565b3480156101ae57600080fd5b506100f26101bd366004610a50565b610675565b3480156101ce57600080fd5b506101146101dd3660046109af565b6107d8565b6100f26101f03660046109af565b6107ea565b600080826040516102069190610abd565b908152604051908190036020019020546001600160a01b031692915050565b60003390508060028360405161023b9190610abd565b90815260405190819003602001902080546001600160a01b03929092166001600160a01b03199092169190911790555050565b60006001826040516102809190610abd565b9081526020016040518091039020549050919050565b600080826040516102a79190610abd565b908152604051908190036020019020546001600160a01b03169050806103145760405162461bcd60e51b815260206004820152601760248201527f4d697373696e6720636c61696d696e672077616c6c657400000000000000000060448201526064015b60405180910390fd5b60006001836040516103269190610abd565b9081526020016040518091039020549050600081116103805760405162461bcd60e51b8152602060048201526016602482015275135a5cdcda5b99c8185d985a5b18589b1948199d5b9960521b604482015260640161030b565b6040516001600160a01b0383169082156108fc029083906000818181858888f193505050501580156103b6573d6000803e3d6000fd5b5060006001846040516103c99190610abd565b90815260405190819003602001902055505050565b60006002826040516103f09190610abd565b908152604051908190036020018120546001600160a01b0316915060009060039061041c908690610abd565b9081526040519081900360200190205490506001600160a01b038216158015906104465750600081115b61049c5760405162461bcd60e51b815260206004820152602160248201527f4d697373696e6720636c61696d696e672077616c6c6574206f7220626f756e746044820152607960f81b606482015260840161030b565b6040516001600160a01b0383169082156108fc029083906000818181858888f193505050501580156104d2573d6000803e3d6000fd5b5060006003856040516104e59190610abd565b9081526040519081900360200190205550505050565b60006002826040516102069190610abd565b600060038360405161051f9190610abd565b9081526020016040518091039020541161057b5760405162461bcd60e51b815260206004820152601860248201527f4e6f2066756e647320696e20697373756520626f756e74790000000000000000604482015260640161030b565b60006001600160a01b03166000826040516105969190610abd565b908152604051908190036020019020546001600160a01b0316036105fc5760405162461bcd60e51b815260206004820152601d60248201527f49737375657220646f6573206e6f74206861766520612077616c6c6574000000604482015260640161030b565b60038260405161060c9190610abd565b90815260200160405180910390205460018260405161062b9190610abd565b908152602001604051809103902060008282546106489190610b02565b9250508190555060006003836040516106619190610abd565b908152604051908190036020019020555050565b60006001836040516106879190610abd565b908152602001604051809103902054116106dc5760405162461bcd60e51b8152602060048201526016602482015275135a5cdcda5b99c8185d985a5b18589b1948199d5b9960521b604482015260640161030b565b806001836040516106ed9190610abd565b908152602001604051809103902054101561073e5760405162461bcd60e51b81526020600482015260116024820152704e6f7420656e6f7567682066756e64732160781b604482015260640161030b565b8060018360405161074f9190610abd565b9081526020016040518091039020600082825461076c9190610b1b565b9250508190555060006003846040516107859190610abd565b90815260200160405180910390205411156107c7576003836040516107aa9190610abd565b908152602001604051809103902054816107c49190610b02565b90505b806003846040516103c99190610abd565b60006003826040516102809190610abd565b6000339050806000836040516108009190610abd565b90815260405190819003602001902080546001600160a01b03929092166001600160a01b0319909216919091179055346108a25760405162461bcd60e51b815260206004820152603960248201527f526567697374726174696f6e2066656520697320696e636f72726563743b207060448201527f6c6561736520636865636b20616e642074727920616761696e00000000000000606482015260840161030b565b600034905060006001846040516108b99190610abd565b90815260200160405180910390205411156108fb576001836040516108de9190610abd565b908152602001604051809103902054816108f89190610b02565b90505b806001846040516103c99190610abd565b634e487b7160e01b600052604160045260246000fd5b600082601f83011261093357600080fd5b813567ffffffffffffffff8082111561094e5761094e61090c565b604051601f8301601f19908116603f011681019082821181831017156109765761097661090c565b8160405283815286602085880101111561098f57600080fd5b836020870160208301376000602085830101528094505050505092915050565b6000602082840312156109c157600080fd5b813567ffffffffffffffff8111156109d857600080fd5b6109e484828501610922565b949350505050565b600080604083850312156109ff57600080fd5b823567ffffffffffffffff80821115610a1757600080fd5b610a2386838701610922565b93506020850135915080821115610a3957600080fd5b50610a4685828601610922565b9150509250929050565b600080600060608486031215610a6557600080fd5b833567ffffffffffffffff80821115610a7d57600080fd5b610a8987838801610922565b94506020860135915080821115610a9f57600080fd5b50610aac86828701610922565b925050604084013590509250925092565b6000825160005b81811015610ade5760208186018101518583015201610ac4565b506000920191825250919050565b634e487b7160e01b600052601160045260246000fd5b80820180821115610b1557610b15610aec565b92915050565b81810381811115610b1557610b15610aec56fea26469706673582212201014cf00e90f71bc2d2b7221b3641fde1876696b486efb89f364a9451839459864736f6c63430008120033",
  "immutableReferences": {},
  "source": "// SPDX-License-Identifier: MIT\r\npragma solidity ^0.8.0;\r\n\r\ncontract SmartContribute {\r\n    // TODO: Add arrays to view in Ganache. Hash keys cannot be retrieved in UI\r\n    mapping(string => address) issuerWallets;\r\n    mapping(string => uint256) issuerFunds;\r\n    mapping(string => address) hunterWallets;\r\n    mapping(string => uint256) issueBounties;\r\n\r\n    event UpdateEvent(address indexed from, uint256 updatedFirst, uint256 updatedSecond);\r\n\r\n    // Maybe return total value?\r\n    function fundIssuer(string memory gitId) external payable {\r\n        // Save issuer wallet\r\n        address caller = msg.sender;\r\n        issuerWallets[gitId] = caller;\r\n\r\n        require(msg.value > 0, \"Registration fee is incorrect; please check and try again\");\r\n\r\n        // Check if issuer already exists\r\n        uint256 paymentAmount = msg.value;\r\n        if (issuerFunds[gitId] > 0) {\r\n            paymentAmount += issuerFunds[gitId];\r\n        }\r\n        \r\n        issuerFunds[gitId] = paymentAmount;\r\n    }\r\n\r\n    function registerIssue(string memory issueId, string memory gitId, uint256 bounty) external {\r\n        require(issuerFunds[gitId] > 0, \"Missing available fund\");\r\n        require(issuerFunds[gitId] >= bounty, \"Not enough funds!\");\r\n\r\n        issuerFunds[gitId] -= bounty;\r\n\r\n        if (issueBounties[issueId] > 0) {\r\n            bounty += issueBounties[issueId];\r\n        }\r\n\r\n        issueBounties[issueId] = bounty;\r\n    }\r\n\r\n    function cancelBounty(string memory issueId, string memory gitId) external {\r\n        require(issueBounties[issueId] > 0, \"No funds in issue bounty\");\r\n        require(issuerWallets[gitId] != address(0), \"Issuer does not have a wallet\");\r\n\r\n        issuerFunds[gitId] += issueBounties[issueId];\r\n        issueBounties[issueId] = 0;\r\n    }\r\n\r\n    function registerHunter(string memory gitId) external {\r\n        address caller = msg.sender;\r\n        hunterWallets[gitId] = caller;\r\n    }\r\n\r\n    function claimBounty(string memory issueId, string memory hunterGitId) external {\r\n        address hunter = hunterWallets[hunterGitId];\r\n        uint256 bounty = issueBounties[issueId];\r\n\r\n        require(hunter != address(0) && bounty > 0, \"Missing claiming wallet or bounty\");\r\n        \r\n        payable(hunter).transfer(bounty);\r\n\r\n        issueBounties[issueId] = 0;\r\n    }\r\n\r\n    function claimFund(string memory gitId) external {\r\n        address wallet = issuerWallets[gitId];\r\n        require(wallet != address(0), \"Missing claiming wallet\");\r\n\r\n        uint256 availableFund = issuerFunds[gitId];\r\n        require(availableFund > 0, \"Missing available fund\");\r\n\r\n        payable(wallet).transfer(availableFund);\r\n        \r\n        issuerFunds[gitId] = 0;\r\n    }\r\n\r\n    function getIssueBounties(string memory issueId) external view returns (uint256) {\r\n        return issueBounties[issueId];\r\n    }\r\n\r\n    function getIssuerFunds(string memory gitId) external view returns (uint256) {\r\n        return issuerFunds[gitId];\r\n    }\r\n\r\n    function getIssuerWallets(string memory gitId) external view returns (address) {\r\n        return issuerWallets[gitId];\r\n    }\r\n\r\n    function getHunterWallets(string memory gitId) external view returns (address) {\r\n        return hunterWallets[gitId];\r\n    }\r\n}\r\n",
  "sourcePath": "C:\\Users\\Andrei\\Documents\\Sapienza\\Blockchain\\ContributeSmart-Eth\\truffle\\contracts\\SmartContribute.sol",
  "compiler": {
    "name": "solc",
    "version": "0.8.18+commit.87f61d96.Emscripten.clang"
  },
  "schemaVersion": "3.4.16",
  "updatedAt": "2024-02-02T10:44:31.853Z",
  "networkType": "ethereum",
  "devdoc": {
    "kind": "dev",
    "methods": {},
    "version": 1
  },
  "userdoc": {
    "kind": "user",
    "methods": {},
    "version": 1
  }
}