{
  "contractName": "SmartContribute",
  "abi": [
    {
      "inputs": [],
      "stateMutability": "nonpayable",
      "type": "constructor"
    },
    {
      "anonymous": false,
      "inputs": [
        {
          "indexed": true,
          "internalType": "address",
          "name": "by",
          "type": "address"
        },
        {
          "indexed": false,
          "internalType": "uint256",
          "name": "amount",
          "type": "uint256"
        }
      ],
      "name": "FundsAdded",
      "type": "event"
    },
    {
      "anonymous": false,
      "inputs": [
        {
          "indexed": true,
          "internalType": "address",
          "name": "by",
          "type": "address"
        },
        {
          "indexed": false,
          "internalType": "uint256",
          "name": "amount",
          "type": "uint256"
        }
      ],
      "name": "FundsRetracted",
      "type": "event"
    },
    {
      "inputs": [
        {
          "internalType": "string",
          "name": "",
          "type": "string"
        }
      ],
      "name": "issueBounties",
      "outputs": [
        {
          "internalType": "uint256",
          "name": "",
          "type": "uint256"
        }
      ],
      "stateMutability": "view",
      "type": "function",
      "constant": true
    },
    {
      "inputs": [
        {
          "internalType": "string",
          "name": "",
          "type": "string"
        }
      ],
      "name": "issuerFunds",
      "outputs": [
        {
          "internalType": "uint256",
          "name": "",
          "type": "uint256"
        }
      ],
      "stateMutability": "view",
      "type": "function",
      "constant": true
    },
    {
      "inputs": [],
      "name": "minter",
      "outputs": [
        {
          "internalType": "address",
          "name": "",
          "type": "address"
        }
      ],
      "stateMutability": "view",
      "type": "function",
      "constant": true
    },
    {
      "inputs": [
        {
          "internalType": "string",
          "name": "gitId",
          "type": "string"
        }
      ],
      "name": "fundIssuer",
      "outputs": [],
      "stateMutability": "payable",
      "type": "function",
      "payable": true
    },
    {
      "inputs": [
        {
          "internalType": "string",
          "name": "issueId",
          "type": "string"
        },
        {
          "internalType": "string",
          "name": "gitId",
          "type": "string"
        },
        {
          "internalType": "uint256",
          "name": "bounty",
          "type": "uint256"
        }
      ],
      "name": "registerIssue",
      "outputs": [],
      "stateMutability": "nonpayable",
      "type": "function"
    },
    {
      "inputs": [
        {
          "internalType": "string",
          "name": "issueId",
          "type": "string"
        },
        {
          "internalType": "string",
          "name": "gitId",
          "type": "string"
        }
      ],
      "name": "cancelBounty",
      "outputs": [],
      "stateMutability": "nonpayable",
      "type": "function"
    },
    {
      "inputs": [
        {
          "internalType": "string",
          "name": "gitId",
          "type": "string"
        }
      ],
      "name": "registerHunter",
      "outputs": [],
      "stateMutability": "nonpayable",
      "type": "function"
    },
    {
      "inputs": [
        {
          "internalType": "string",
          "name": "issueId",
          "type": "string"
        },
        {
          "internalType": "string",
          "name": "hunterGitId",
          "type": "string"
        }
      ],
      "name": "claimBounty",
      "outputs": [],
      "stateMutability": "nonpayable",
      "type": "function"
    },
    {
      "inputs": [
        {
          "internalType": "string",
          "name": "gitId",
          "type": "string"
        }
      ],
      "name": "claimFund",
      "outputs": [],
      "stateMutability": "nonpayable",
      "type": "function"
    },
    {
      "inputs": [],
      "name": "terminate",
      "outputs": [],
      "stateMutability": "nonpayable",
      "type": "function"
    }
  ],
  "bytecode": "0x608060405234801561001057600080fd5b50600080546001600160a01b03191633179055610c6b806100326000396000f3fe6080604052600436106100915760003560e01c806389f7deed1161005957806389f7deed146101885780639222dd26146101a8578063c586018d146101c8578063e8097c80146101e8578063feee77071461020857600080fd5b806307546172146100965780630c08bf88146100d35780632b6f0495146100ea57806346c6e7221461010a5780637ee119ee14610150575b600080fd5b3480156100a257600080fd5b506000546100b6906001600160a01b031681565b6040516001600160a01b0390911681526020015b60405180910390f35b3480156100df57600080fd5b506100e861021b565b005b3480156100f657600080fd5b506100e8610105366004610ab6565b61029c565b34801561011657600080fd5b50610142610125366004610ab6565b805160208183018101805160028252928201919093012091525481565b6040519081526020016100ca565b34801561015c57600080fd5b5061014261016b366004610ab6565b805160208183018101805160048252928201919093012091525481565b34801561019457600080fd5b506100e86101a3366004610ab6565b6102e5565b3480156101b457600080fd5b506100e86101c3366004610af3565b61046e565b3480156101d457600080fd5b506100e86101e3366004610af3565b6105d0565b3480156101f457600080fd5b506100e8610203366004610b57565b610738565b6100e8610216366004610ab6565b6108b0565b6000546001600160a01b0316331461028e5760405162461bcd60e51b815260206004820152602b60248201527f4f6e6c7920746865206d696e7465722063616e207465726d696e61746520746860448201526a6520636f6e74726163742160a81b60648201526084015b60405180910390fd5b6000546001600160a01b0316ff5b6000339050806003836040516102b29190610bc4565b90815260405190819003602001902080546001600160a01b03929092166001600160a01b03199092169190911790555050565b60006001826040516102f79190610bc4565b908152604051908190036020019020546001600160a01b031690508061035f5760405162461bcd60e51b815260206004820152601760248201527f4d697373696e6720636c61696d696e672077616c6c65740000000000000000006044820152606401610285565b60006002836040516103719190610bc4565b9081526020016040518091039020549050600081116103cb5760405162461bcd60e51b8152602060048201526016602482015275135a5cdcda5b99c8185d985a5b18589b1948199d5b9960521b6044820152606401610285565b6040516001600160a01b0383169082156108fc029083906000818181858888f19350505050158015610401573d6000803e3d6000fd5b5060006002846040516104149190610bc4565b908152602001604051809103902081905550816001600160a01b03167f3daf4eb29b0a47a5ad42f34b5f126843b185367beba424555d8f2434aa7143cd8260405161046191815260200190565b60405180910390a2505050565b60006003826040516104809190610bc4565b908152604051908190036020018120546001600160a01b031691506000906004906104ac908690610bc4565b9081526040519081900360200190205490506001600160a01b038216158015906104d65750600081115b61052c5760405162461bcd60e51b815260206004820152602160248201527f4d697373696e6720636c61696d696e672077616c6c6574206f7220626f756e746044820152607960f81b6064820152608401610285565b6040516001600160a01b0383169082156108fc029083906000818181858888f19350505050158015610562573d6000803e3d6000fd5b5060006004856040516105759190610bc4565b908152602001604051809103902081905550816001600160a01b03167f3daf4eb29b0a47a5ad42f34b5f126843b185367beba424555d8f2434aa7143cd826040516105c291815260200190565b60405180910390a250505050565b60006004836040516105e29190610bc4565b9081526020016040518091039020541161063e5760405162461bcd60e51b815260206004820152601860248201527f4e6f2066756e647320696e20697373756520626f756e747900000000000000006044820152606401610285565b60006001600160a01b03166001826040516106599190610bc4565b908152604051908190036020019020546001600160a01b0316036106bf5760405162461bcd60e51b815260206004820152601d60248201527f49737375657220646f6573206e6f74206861766520612077616c6c65740000006044820152606401610285565b6004826040516106cf9190610bc4565b9081526020016040518091039020546002826040516106ee9190610bc4565b9081526020016040518091039020600082825461070b9190610c09565b9250508190555060006004836040516107249190610bc4565b908152604051908190036020019020555050565b600060028360405161074a9190610bc4565b9081526020016040518091039020541161079f5760405162461bcd60e51b8152602060048201526016602482015275135a5cdcda5b99c8185d985a5b18589b1948199d5b9960521b6044820152606401610285565b806002836040516107b09190610bc4565b90815260200160405180910390205410156108015760405162461bcd60e51b81526020600482015260116024820152704e6f7420656e6f7567682066756e64732160781b6044820152606401610285565b806002836040516108129190610bc4565b9081526020016040518091039020600082825461082f9190610c22565b9250508190555060006004846040516108489190610bc4565b908152602001604051809103902054111561088a5760048360405161086d9190610bc4565b908152602001604051809103902054816108879190610c09565b90505b8060048460405161089b9190610bc4565b90815260405190819003602001902055505050565b6000339050806001836040516108c69190610bc4565b90815260405190819003602001902080546001600160a01b03929092166001600160a01b0319909216919091179055346109685760405162461bcd60e51b815260206004820152603960248201527f526567697374726174696f6e2066656520697320696e636f72726563743b207060448201527f6c6561736520636865636b20616e642074727920616761696e000000000000006064820152608401610285565b6000349050600060028460405161097f9190610bc4565b90815260200160405180910390205411156109c1576002836040516109a49190610bc4565b908152602001604051809103902054816109be9190610c09565b90505b806002846040516109d29190610bc4565b908152604051602091819003820181209290925534825230917f8fe10ae416f22f5e5220b0018a6c1d4ff534d6aa3a471f2a20cb7747fe63e5b99101610461565b634e487b7160e01b600052604160045260246000fd5b600082601f830112610a3a57600080fd5b813567ffffffffffffffff80821115610a5557610a55610a13565b604051601f8301601f19908116603f01168101908282118183101715610a7d57610a7d610a13565b81604052838152866020858801011115610a9657600080fd5b836020870160208301376000602085830101528094505050505092915050565b600060208284031215610ac857600080fd5b813567ffffffffffffffff811115610adf57600080fd5b610aeb84828501610a29565b949350505050565b60008060408385031215610b0657600080fd5b823567ffffffffffffffff80821115610b1e57600080fd5b610b2a86838701610a29565b93506020850135915080821115610b4057600080fd5b50610b4d85828601610a29565b9150509250929050565b600080600060608486031215610b6c57600080fd5b833567ffffffffffffffff80821115610b8457600080fd5b610b9087838801610a29565b94506020860135915080821115610ba657600080fd5b50610bb386828701610a29565b925050604084013590509250925092565b6000825160005b81811015610be55760208186018101518583015201610bcb565b506000920191825250919050565b634e487b7160e01b600052601160045260246000fd5b80820180821115610c1c57610c1c610bf3565b92915050565b81810381811115610c1c57610c1c610bf356fea26469706673582212208c8fa35bb5923958971643c4103071012e4653890707503fbd853fc61407921c64736f6c63430008120033",
  "immutableReferences": {},
  "source": "// SPDX-License-Identifier: MIT\r\npragma solidity ^0.8.0;\r\n\r\ncontract SmartContribute {\r\n    // TODO: Add arrays to view in Ganache. Hash keys cannot be retrieved in UI\r\n    address public minter;\r\n    mapping(string => address) private issuerWallets;\r\n    mapping(string => uint256) public issuerFunds;\r\n    mapping(string => address) private hunterWallets;\r\n    mapping(string => uint256) public issueBounties;\r\n\r\n    event FundsAdded(address indexed by, uint256 amount);\r\n    event FundsRetracted(address indexed by, uint256 amount);\r\n\r\n    constructor() {\r\n        minter = msg.sender;\r\n    }\r\n\r\n    function fundIssuer(string memory gitId) external payable {\r\n        // Save issuer wallet\r\n        address caller = msg.sender;\r\n        issuerWallets[gitId] = caller;\r\n\r\n        require(msg.value > 0, \"Registration fee is incorrect; please check and try again\");\r\n\r\n        // Check if issuer already exists\r\n        uint256 paymentAmount = msg.value;\r\n        if (issuerFunds[gitId] > 0) {\r\n            paymentAmount += issuerFunds[gitId];\r\n        }\r\n        \r\n        issuerFunds[gitId] = paymentAmount;\r\n\r\n        emit FundsAdded(address(this), msg.value);\r\n    }\r\n\r\n    function registerIssue(string memory issueId, string memory gitId, uint256 bounty) external {\r\n        require(issuerFunds[gitId] > 0, \"Missing available fund\");\r\n        require(issuerFunds[gitId] >= bounty, \"Not enough funds!\");\r\n\r\n        issuerFunds[gitId] -= bounty;\r\n\r\n        if (issueBounties[issueId] > 0) {\r\n            bounty += issueBounties[issueId];\r\n        }\r\n\r\n        issueBounties[issueId] = bounty;\r\n    }\r\n\r\n    function cancelBounty(string memory issueId, string memory gitId) external {\r\n        require(issueBounties[issueId] > 0, \"No funds in issue bounty\");\r\n        require(issuerWallets[gitId] != address(0), \"Issuer does not have a wallet\");\r\n\r\n        issuerFunds[gitId] += issueBounties[issueId];\r\n        issueBounties[issueId] = 0;\r\n    }\r\n\r\n    function registerHunter(string memory gitId) external {\r\n        address caller = msg.sender;\r\n        hunterWallets[gitId] = caller;\r\n    }\r\n\r\n    function claimBounty(string memory issueId, string memory hunterGitId) external {\r\n        address hunter = hunterWallets[hunterGitId];\r\n        uint256 bounty = issueBounties[issueId];\r\n\r\n        require(hunter != address(0) && bounty > 0, \"Missing claiming wallet or bounty\");\r\n        \r\n        payable(hunter).transfer(bounty);\r\n\r\n        issueBounties[issueId] = 0;\r\n\r\n        emit FundsRetracted(hunter, bounty);\r\n    }\r\n\r\n    function claimFund(string memory gitId) external {\r\n        address wallet = issuerWallets[gitId];\r\n        require(wallet != address(0), \"Missing claiming wallet\");\r\n\r\n        uint256 availableFund = issuerFunds[gitId];\r\n        require(availableFund > 0, \"Missing available fund\");\r\n\r\n        payable(wallet).transfer(availableFund);\r\n        \r\n        issuerFunds[gitId] = 0;\r\n\r\n        emit FundsRetracted(wallet, availableFund);\r\n    }\r\n\r\n    function terminate() public {\r\n        require(msg.sender == minter, \"Only the minter can terminate the contract!\");\r\n        selfdestruct(payable(minter));\r\n    }\r\n}\r\n",
  "sourcePath": "C:\\Users\\Andrei\\Documents\\Sapienza\\Blockchain\\ContributeSmart-Eth\\truffle\\contracts\\SmartContribute.sol",
  "compiler": {
    "name": "solc",
    "version": "0.8.18+commit.87f61d96.Emscripten.clang"
  },
  "schemaVersion": "3.4.16",
  "updatedAt": "2024-02-06T17:02:37.963Z",
  "networkType": "ethereum",
  "devdoc": {
    "kind": "dev",
    "methods": {},
    "version": 1
  },
  "userdoc": {
    "kind": "user",
    "methods": {},
    "version": 1
  }
}