{
  "contractName": "SmartContribute",
  "abi": [
    {
      "anonymous": false,
      "inputs": [
        {
          "indexed": true,
          "internalType": "address",
          "name": "from",
          "type": "address"
        },
        {
          "indexed": false,
          "internalType": "uint256",
          "name": "updatedFirst",
          "type": "uint256"
        },
        {
          "indexed": false,
          "internalType": "uint256",
          "name": "updatedSecond",
          "type": "uint256"
        }
      ],
      "name": "UpdateEvent",
      "type": "event"
    },
    {
      "inputs": [
        {
          "internalType": "string",
          "name": "gitId",
          "type": "string"
        }
      ],
      "name": "fundIssuer",
      "outputs": [],
      "stateMutability": "payable",
      "type": "function",
      "payable": true
    },
    {
      "inputs": [
        {
          "internalType": "string",
          "name": "issueId",
          "type": "string"
        },
        {
          "internalType": "string",
          "name": "gitId",
          "type": "string"
        },
        {
          "internalType": "uint256",
          "name": "bounty",
          "type": "uint256"
        }
      ],
      "name": "registerIssue",
      "outputs": [],
      "stateMutability": "nonpayable",
      "type": "function"
    },
    {
      "inputs": [
        {
          "internalType": "string",
          "name": "gitId",
          "type": "string"
        }
      ],
      "name": "registerHunter",
      "outputs": [],
      "stateMutability": "nonpayable",
      "type": "function"
    },
    {
      "inputs": [
        {
          "internalType": "string",
          "name": "issueId",
          "type": "string"
        },
        {
          "internalType": "string",
          "name": "hunterGitId",
          "type": "string"
        }
      ],
      "name": "claimBounty",
      "outputs": [],
      "stateMutability": "nonpayable",
      "type": "function"
    },
    {
      "inputs": [
        {
          "internalType": "string",
          "name": "gitId",
          "type": "string"
        }
      ],
      "name": "claimFund",
      "outputs": [],
      "stateMutability": "nonpayable",
      "type": "function"
    },
    {
      "inputs": [
        {
          "internalType": "string",
          "name": "issueId",
          "type": "string"
        }
      ],
      "name": "getIssueBounties",
      "outputs": [
        {
          "internalType": "uint256",
          "name": "",
          "type": "uint256"
        }
      ],
      "stateMutability": "view",
      "type": "function",
      "constant": true
    },
    {
      "inputs": [
        {
          "internalType": "string",
          "name": "gitId",
          "type": "string"
        }
      ],
      "name": "getIssuerFunds",
      "outputs": [
        {
          "internalType": "uint256",
          "name": "",
          "type": "uint256"
        }
      ],
      "stateMutability": "view",
      "type": "function",
      "constant": true
    },
    {
      "inputs": [
        {
          "internalType": "string",
          "name": "gitId",
          "type": "string"
        }
      ],
      "name": "getIssuerWallets",
      "outputs": [
        {
          "internalType": "address",
          "name": "",
          "type": "address"
        }
      ],
      "stateMutability": "view",
      "type": "function",
      "constant": true
    },
    {
      "inputs": [
        {
          "internalType": "string",
          "name": "gitId",
          "type": "string"
        }
      ],
      "name": "getHunterWallets",
      "outputs": [
        {
          "internalType": "address",
          "name": "",
          "type": "address"
        }
      ],
      "stateMutability": "view",
      "type": "function",
      "constant": true
    }
  ],
  "bytecode": "0x608060405234801561001057600080fd5b50610fb5806100206000396000f3fe6080604052600436106100855760003560e01c80639222dd26116100595780639222dd2614610156578063aa4ba12e1461017f578063e8097c80146101bc578063f17055b7146101e5578063feee77071461022257610085565b80628d359f1461008a5780632b6f0495146100c75780638686383e146100f057806389f7deed1461012d575b600080fd5b34801561009657600080fd5b506100b160048036038101906100ac91906109b4565b61023e565b6040516100be9190610a3e565b60405180910390f35b3480156100d357600080fd5b506100ee60048036038101906100e991906109b4565b610285565b005b3480156100fc57600080fd5b50610117600480360381019061011291906109b4565b6102eb565b6040516101249190610a72565b60405180910390f35b34801561013957600080fd5b50610154600480360381019061014f91906109b4565b610313565b005b34801561016257600080fd5b5061017d60048036038101906101789190610a8d565b610476565b005b34801561018b57600080fd5b506101a660048036038101906101a191906109b4565b6105a5565b6040516101b39190610a3e565b60405180910390f35b3480156101c857600080fd5b506101e360048036038101906101de9190610b31565b6105ed565b005b3480156101f157600080fd5b5061020c600480360381019061020791906109b4565b61070c565b6040516102199190610a72565b60405180910390f35b61023c600480360381019061023791906109b4565b610734565b005b6000808260405161024f9190610c36565b908152602001604051809103902060009054906101000a900473ffffffffffffffffffffffffffffffffffffffff169050919050565b60003390508060028360405161029b9190610c36565b908152602001604051809103902060006101000a81548173ffffffffffffffffffffffffffffffffffffffff021916908373ffffffffffffffffffffffffffffffffffffffff1602179055505050565b60006001826040516102fd9190610c36565b9081526020016040518091039020549050919050565b600080826040516103249190610c36565b908152602001604051809103902060009054906101000a900473ffffffffffffffffffffffffffffffffffffffff169050600073ffffffffffffffffffffffffffffffffffffffff168173ffffffffffffffffffffffffffffffffffffffff16036103c4576040517f08c379a00000000000000000000000000000000000000000000000000000000081526004016103bb90610caa565b60405180910390fd5b60006001836040516103d69190610c36565b90815260200160405180910390205490506000811161042a576040517f08c379a000000000000000000000000000000000000000000000000000000000815260040161042190610d16565b60405180910390fd5b8173ffffffffffffffffffffffffffffffffffffffff166108fc829081150290604051600060405180830381858888f19350505050158015610470573d6000803e3d6000fd5b50505050565b60006002826040516104889190610c36565b908152602001604051809103902060009054906101000a900473ffffffffffffffffffffffffffffffffffffffff16905060006003846040516104cb9190610c36565b9081526020016040518091039020549050600073ffffffffffffffffffffffffffffffffffffffff168273ffffffffffffffffffffffffffffffffffffffff16141580156105195750600081115b610558576040517f08c379a000000000000000000000000000000000000000000000000000000000815260040161054f90610da8565b60405180910390fd5b8173ffffffffffffffffffffffffffffffffffffffff166108fc829081150290604051600060405180830381858888f1935050505015801561059e573d6000803e3d6000fd5b5050505050565b60006002826040516105b79190610c36565b908152602001604051809103902060009054906101000a900473ffffffffffffffffffffffffffffffffffffffff169050919050565b60006001836040516105ff9190610c36565b9081526020016040518091039020541161064e576040517f08c379a000000000000000000000000000000000000000000000000000000000815260040161064590610d16565b60405180910390fd5b8060018360405161065f9190610c36565b90815260200160405180910390205410156106af576040517f08c379a00000000000000000000000000000000000000000000000000000000081526004016106a690610e14565b60405180910390fd5b806001836040516106c09190610c36565b908152602001604051809103902060008282546106dd9190610e63565b92505081905550806003846040516106f59190610c36565b908152602001604051809103902081905550505050565b600060038260405161071e9190610c36565b9081526020016040518091039020549050919050565b60003390508060008360405161074a9190610c36565b908152602001604051809103902060006101000a81548173ffffffffffffffffffffffffffffffffffffffff021916908373ffffffffffffffffffffffffffffffffffffffff160217905550600034116107d9576040517f08c379a00000000000000000000000000000000000000000000000000000000081526004016107d090610f09565b60405180910390fd5b600034905060006001846040516107f09190610c36565b9081526020016040518091039020541115610832576001836040516108159190610c36565b9081526020016040518091039020548161082f9190610f29565b90505b806001846040516108439190610c36565b908152602001604051809103902081905550505050565b6000604051905090565b600080fd5b600080fd5b600080fd5b600080fd5b6000601f19601f8301169050919050565b7f4e487b7100000000000000000000000000000000000000000000000000000000600052604160045260246000fd5b6108c182610878565b810181811067ffffffffffffffff821117156108e0576108df610889565b5b80604052505050565b60006108f361085a565b90506108ff82826108b8565b919050565b600067ffffffffffffffff82111561091f5761091e610889565b5b61092882610878565b9050602081019050919050565b82818337600083830152505050565b600061095761095284610904565b6108e9565b90508281526020810184848401111561097357610972610873565b5b61097e848285610935565b509392505050565b600082601f83011261099b5761099a61086e565b5b81356109ab848260208601610944565b91505092915050565b6000602082840312156109ca576109c9610864565b5b600082013567ffffffffffffffff8111156109e8576109e7610869565b5b6109f484828501610986565b91505092915050565b600073ffffffffffffffffffffffffffffffffffffffff82169050919050565b6000610a28826109fd565b9050919050565b610a3881610a1d565b82525050565b6000602082019050610a536000830184610a2f565b92915050565b6000819050919050565b610a6c81610a59565b82525050565b6000602082019050610a876000830184610a63565b92915050565b60008060408385031215610aa457610aa3610864565b5b600083013567ffffffffffffffff811115610ac257610ac1610869565b5b610ace85828601610986565b925050602083013567ffffffffffffffff811115610aef57610aee610869565b5b610afb85828601610986565b9150509250929050565b610b0e81610a59565b8114610b1957600080fd5b50565b600081359050610b2b81610b05565b92915050565b600080600060608486031215610b4a57610b49610864565b5b600084013567ffffffffffffffff811115610b6857610b67610869565b5b610b7486828701610986565b935050602084013567ffffffffffffffff811115610b9557610b94610869565b5b610ba186828701610986565b9250506040610bb286828701610b1c565b9150509250925092565b600081519050919050565b600081905092915050565b60005b83811015610bf0578082015181840152602081019050610bd5565b83811115610bff576000848401525b50505050565b6000610c1082610bbc565b610c1a8185610bc7565b9350610c2a818560208601610bd2565b80840191505092915050565b6000610c428284610c05565b915081905092915050565b600082825260208201905092915050565b7f4d697373696e6720636c61696d696e672077616c6c6574000000000000000000600082015250565b6000610c94601783610c4d565b9150610c9f82610c5e565b602082019050919050565b60006020820190508181036000830152610cc381610c87565b9050919050565b7f4d697373696e6720617661696c61626c652066756e6400000000000000000000600082015250565b6000610d00601683610c4d565b9150610d0b82610cca565b602082019050919050565b60006020820190508181036000830152610d2f81610cf3565b9050919050565b7f4d697373696e6720636c61696d696e672077616c6c6574206f7220626f756e7460008201527f7900000000000000000000000000000000000000000000000000000000000000602082015250565b6000610d92602183610c4d565b9150610d9d82610d36565b604082019050919050565b60006020820190508181036000830152610dc181610d85565b9050919050565b7f4e6f7420656e6f7567682066756e647321000000000000000000000000000000600082015250565b6000610dfe601183610c4d565b9150610e0982610dc8565b602082019050919050565b60006020820190508181036000830152610e2d81610df1565b9050919050565b7f4e487b7100000000000000000000000000000000000000000000000000000000600052601160045260246000fd5b6000610e6e82610a59565b9150610e7983610a59565b925082821015610e8c57610e8b610e34565b5b828203905092915050565b7f526567697374726174696f6e2066656520697320696e636f72726563743b207060008201527f6c6561736520636865636b20616e642074727920616761696e00000000000000602082015250565b6000610ef3603983610c4d565b9150610efe82610e97565b604082019050919050565b60006020820190508181036000830152610f2281610ee6565b9050919050565b6000610f3482610a59565b9150610f3f83610a59565b9250827fffffffffffffffffffffffffffffffffffffffffffffffffffffffffffffffff03821115610f7457610f73610e34565b5b82820190509291505056fea26469706673582212207baec5b93cc6361094d411a8b2c93267b3974c23e7fd4d82ebed2dc9837bef5764736f6c634300080d0033",
  "immutableReferences": {},
  "source": "// SPDX-License-Identifier: MIT\npragma solidity ^0.8.0;\n\ncontract SmartContribute {\n    mapping(string => address) issuerWallets;\n    mapping(string => uint256) issuerFunds;\n    mapping(string => address) hunterWallets;\n    mapping(string => uint256) issueBounties;\n\n    event UpdateEvent(address indexed from, uint256 updatedFirst, uint256 updatedSecond);\n\n    function fundIssuer(string memory gitId) external payable {\n        // Save issuer wallet\n        address caller = msg.sender;\n        issuerWallets[gitId] = caller;\n\n        require(msg.value > 0, \"Registration fee is incorrect; please check and try again\");\n\n        // Check if issuer already exists\n        uint256 paymentAmount = msg.value;\n        if (issuerFunds[gitId] > 0) {\n            paymentAmount += issuerFunds[gitId];\n        }\n        \n        issuerFunds[gitId] = paymentAmount;\n    }\n\n    function registerIssue(string memory issueId, string memory gitId, uint256 bounty) external {\n        require(issuerFunds[gitId] > 0, \"Missing available fund\");\n        require(issuerFunds[gitId] >= bounty, \"Not enough funds!\");\n\n        issuerFunds[gitId] -= bounty;\n        // TODO: treat double call, money lost to contract instead of added to bounty\n        issueBounties[issueId] = bounty;\n    }\n\n    function registerHunter(string memory gitId) external {\n        address caller = msg.sender;\n        hunterWallets[gitId] = caller;\n    }\n\n    function claimBounty(string memory issueId, string memory hunterGitId) external {\n        address hunter = hunterWallets[hunterGitId];\n        uint256 bounty = issueBounties[issueId];\n\n        require(hunter != address(0) && bounty > 0, \"Missing claiming wallet or bounty\");\n        \n        payable(hunter).transfer(bounty);\n    }\n\n    function claimFund(string memory gitId) external {\n        address wallet = issuerWallets[gitId];\n        require(wallet != address(0), \"Missing claiming wallet\");\n\n        uint256 availableFund = issuerFunds[gitId];\n        require(availableFund > 0, \"Missing available fund\");\n\n        payable(wallet).transfer(availableFund);\n    }\n\n    function getIssueBounties(string memory issueId) external view returns (uint256) {\n        return issueBounties[issueId];\n    }\n\n    function getIssuerFunds(string memory gitId) external view returns (uint256) {\n        return issuerFunds[gitId];\n    }\n\n    function getIssuerWallets(string memory gitId) external view returns (address) {\n        return issuerWallets[gitId];\n    }\n\n    function getHunterWallets(string memory gitId) external view returns (address) {\n        return hunterWallets[gitId];\n    }\n}\n",
  "sourcePath": "D:\\fisiere\\SmartContribute\\contracts\\SmartContribute.sol",
  "compiler": {
    "name": "solc",
    "version": "0.8.13+commit.abaa5c0e.Emscripten.clang"
  },
  "schemaVersion": "3.4.16",
  "updatedAt": "2024-01-16T14:49:27.592Z",
  "networkType": "ethereum",
  "devdoc": {
    "kind": "dev",
    "methods": {},
    "version": 1
  },
  "userdoc": {
    "kind": "user",
    "methods": {},
    "version": 1
  }
}